:100000000428FF3FFF3FFF3F0630031383169F0086
:1000100083128601831686018312A001A101A20129
:10002000A30180302106F00080307002031D1A28E1
:100030006030200203186428043086001A30FB0068
:10004000FF30FA00FB0B25282828FA0B2528222848
:10005000E730FA00FA0B2A280000023086001A3036
:10006000FB00FF30FA00FB0B36283928FA0B362844
:100070003328E730FA00FA0B3B28000008308600EE
:100080001A30FB00FF30FA00FB0B47284A28FA0B16
:1000900047284428E730FA00FA0B4C2800000130CA
:1000A00086001A30FB00FF30FA00FB0B58285B2853
:1000B000FA0B58285528E730FA00FA0B5D280000A3
:1000C000A00A0319A10A11280830FC00FF30FB0028
:1000D000FF30FA00FC0B6D287428FB0B7028732886
:1000E000FA0B70286D286A28A530FB00FF30FA0053
:1000F000FB0B7B287E28FA0B7B287828E730FA0058
:10010000FA0B8028000080302306F0008030700257
:10011000031D8C28603022020318D6280130860087
:100120001A30FB00FF30FA00FB0B97289A28FA0BD5
:1001300097289428E730FA00FA0B9C280000083032
:1001400086001A30FB00FF30FA00FB0BA828AB2812
:10015000FA0BA828A528E730FA00FA0BAD28000012
:10016000023086001A30FB00FF30FA00FB0BB92882
:10017000BC28FA0BB928B628E730FA00FA0BBE28DB
:100180000000043086001A30FB00FF30FA00FB0B41
:10019000CA28CD28FA0BCA28C728E730FA00FA0B7C
:1001A000CF280000A20A0319A30A83280830FC0004
:1001B000FF30FB00FF30FA00FC0BDF28E628FB0BCA
:1001C000E228E528FA0BE228DF28DC28A530FB002E
:1001D000FF30FA00FB0BED28F028FA0BED28EA2897
:1001E000E730FA00FA0BF22800000C28F628FF3F4F
:02400E007A3FF7
:00000001FF
